{
  "_format": "hh-sol-artifact-1",
  "contractName": "WalletCreator",
  "sourceName": "contracts/WalletCreator.sol",
  "abi": [
    {
      "anonymous": false,
      "inputs": [
        {
          "indexed": true,
          "internalType": "address",
          "name": "owner",
          "type": "address"
        },
        {
          "indexed": true,
          "internalType": "address",
          "name": "walletAddress",
          "type": "address"
        }
      ],
      "name": "WalletCreated",
      "type": "event"
    },
    {
      "inputs": [],
      "name": "createWallet",
      "outputs": [
        {
          "internalType": "address",
          "name": "",
          "type": "address"
        }
      ],
      "stateMutability": "nonpayable",
      "type": "function"
    }
  ],
  "bytecode": "0x608060405234801561001057600080fd5b5061063b806100206000396000f3fe608060405234801561001057600080fd5b506004361061002b5760003560e01c806311ebbf2414610030575b600080fd5b61003861004e565b6040516100459190610163565b60405180910390f35b6000806040518060200161006190610115565b6020820181038252601f19601f8201166040525090506000334260405160200161008c9291906101f1565b6040516020818303038152906040528051906020012090506000818351602085016000f590508073ffffffffffffffffffffffffffffffffffffffff163373ffffffffffffffffffffffffffffffffffffffff167f5b03bfed1c14a02bdeceb5fa582eb1a5765fc0bc64ca0e6af4c20afc9487f08160405160405180910390a380935050505090565b6103e88061021e83390190565b600073ffffffffffffffffffffffffffffffffffffffff82169050919050565b600061014d82610122565b9050919050565b61015d81610142565b82525050565b60006020820190506101786000830184610154565b92915050565b60008160601b9050919050565b60006101968261017e565b9050919050565b60006101a88261018b565b9050919050565b6101c06101bb82610142565b61019d565b82525050565b6000819050919050565b6000819050919050565b6101eb6101e6826101c6565b6101d0565b82525050565b60006101fd82856101af565b60148201915061020d82846101da565b602082019150819050939250505056fe608060405234801561001057600080fd5b50336000806101000a81548173ffffffffffffffffffffffffffffffffffffffff021916908373ffffffffffffffffffffffffffffffffffffffff160217905550610388806100606000396000f3fe6080604052600436106100385760003560e01c806312065fe0146100445780632e1a7d4d1461006f5780638da5cb5b146100985761003f565b3661003f57005b600080fd5b34801561005057600080fd5b506100596100c3565b6040516100669190610200565b60405180910390f35b34801561007b57600080fd5b506100966004803603810190610091919061024c565b6100cb565b005b3480156100a457600080fd5b506100ad6101c3565b6040516100ba91906102ba565b60405180910390f35b600047905090565b60008054906101000a900473ffffffffffffffffffffffffffffffffffffffff1673ffffffffffffffffffffffffffffffffffffffff163373ffffffffffffffffffffffffffffffffffffffff1614610159576040517f08c379a000000000000000000000000000000000000000000000000000000000815260040161015090610332565b60405180910390fd5b60008054906101000a900473ffffffffffffffffffffffffffffffffffffffff1673ffffffffffffffffffffffffffffffffffffffff166108fc829081150290604051600060405180830381858888f193505050501580156101bf573d6000803e3d6000fd5b5050565b60008054906101000a900473ffffffffffffffffffffffffffffffffffffffff1681565b6000819050919050565b6101fa816101e7565b82525050565b600060208201905061021560008301846101f1565b92915050565b600080fd5b610229816101e7565b811461023457600080fd5b50565b60008135905061024681610220565b92915050565b6000602082840312156102625761026161021b565b5b600061027084828501610237565b91505092915050565b600073ffffffffffffffffffffffffffffffffffffffff82169050919050565b60006102a482610279565b9050919050565b6102b481610299565b82525050565b60006020820190506102cf60008301846102ab565b92915050565b600082825260208201905092915050565b7f4f6e6c79206f776e65722063616e207769746864726177000000000000000000600082015250565b600061031c6017836102d5565b9150610327826102e6565b602082019050919050565b6000602082019050818103600083015261034b8161030f565b905091905056fea264697066735822122067f0ec116eccba1334b019e3ba2838bfba2e3837c160d82ac911becc5b5c2b0264736f6c63430008130033a2646970667358221220aa4ee8b890d8bc40b11539047c5bd7c77219b63f3bbfbe09532112703d5fb04f64736f6c63430008130033",
  "linkReferences": {},
  "deployedLinkReferences": {}
}